:020000040000FA
:100000000208001200B61201BA1201C11201A612B2
:1000100001CF12019B12018112018E1201C802014F
:10002000D3EB9FF5F0EA9E42F0E99D42F0E89C4553
:10003000F022220201DB750A01C203750B80750CE8
:10004000FF1200031201D7750875750930E509150F
:100050000970021508E509450870F230031EE50A2B
:10006000250BF50BFF120131AF0B7E00EF642F70F3
:1000700005750AFFC203EF4E7021801CE50A250BAF
:10008000F50BFF1200FFAF0B7E00EF642F700575BC
:100090000AFFD203EF4E7003750A017508FD75095A
:1000A000E8D3E5099400E5089400409BE5091509AB
:1000B00070EF150880EB7597A5E4F511F510F50FB5
:1000C000F50EE47FCCFEFDFCAB11AA10A90FA80E23
:1000D000C3120021501800E5112401F511E4351078
:1000E000F510E4350FF50FE4350EF50E80D4A2AF10
:1000F0009204C2AF7597DE7597ADA20492AF228FBE
:100100000E43900A5390FAE5DA5440700543DA4002
:10011000800AE50E7D00FCE4FF120163E5DB54403C
:10012000700443DB4022E50E7D00FC7F0112016379
:10013000228F0E4390055390F5E5DA544070054345
:10014000DA40800AE50E7D00FCE4FF120163E5DB86
:100150005440700443DB4022E50E7D00FC7F011219
:10016000016322AB07AF04EB14600C14600E240291
:10017000700E8DFB8FFC228DE98FEA228DEB8FECC8
:100180002253F77F75DA4275FB8075FC802253F7A6
:100190007F75DB4275E9FF75EAFF22C2DE75D9087B
:1001A000759E03D2DE2275E34075E10275E20222FC
:1001B000012100C100C101C1020075A40275D4F083
:1001C0002275A53075D50F2275A21743F80122E4D8
:0C01D000F5A92275A8402243A50F223299
:10080000120032787FE4F6D8FD75813B02084A0277
:100810000036E493A3F8E493A34003F68001F208C2
:10082000DFF48029E493A3F85407240CC8C333C42D
:10083000540F4420C8834004F456800146F6DFE498
:10084000800B01020408102040809001B0E47E017A
:100850009360BCA3FF543F30E509541FFEE493A30B
:1008600060010ECF54C025E060A840B8E493A3FA1D
:10087000E493A3F8E493A3C8C582C8CAC583CAF0A9
:0F088000A3C8C582C8CAC583CADFE9DEE780BE48
:00000001FF
