:020000040000FA
:100000000208A6AB07AA06EB2401FEE43A9000041E
:10001000F0A3CEF0ED14900001F08B828A83E0F51E
:1000200099222202080053F77F75DA4275FB80752A
:10003000FC80220202C01201E3E4FBFD7F101202E9
:10004000831202BBD2AF1202A9EF700F1202A3EF0C
:1000500070097E007F067D04120249E50E60E724E8
:100060009E601324F6601624FA6019240C701AAFEF
:100070000F12011B8013AF0F12014D800CAF0F1236
:1000800001B18005AF0F12017FE4F50EF50F80B6C8
:100090007597A5E4F50BF50AF509F508E47FCCFEA4
:1000A000FDFCAB0BAA0AA909A808C3120238501814
:1000B00000E50B2401F50BE4350AF50AE43509F5F2
:1000C00009E43508F50880D4A2AF9200C2AF759755
:1000D000DE7597ADA20092AF22E4FFEFFD7C00C376
:1000E000940474809480502A74062FF582E43400BE
:1000F000F583E0F50DED600464017006740E2FF8D1
:10010000A60D74062FF582E43400F583E50DF00F9B
:1001100080C97E007F067D040200038F0843900A99
:100120005390FAE5DA5440700543DA40800AE50856
:100130007D00FCE4FF120207E5DB5440700443DB62
:100140004022E5087D00FC7F01120207228F084350
:1001500090055390F5E5DA5440700543DA40800A83
:10016000E5087D00FCE4FF120207E5DB5440700463
:1001700043DB4022E5087D00FC7F01120207228F4D
:10018000084390065390F6E5DA5440700543DA4090
:10019000800AE5087D00FCE4FF120207E5DB54401D
:1001A000700443DB4022E5087D00FC7F011202075A
:1001B000228F084390095390F9E5DA5440700543C3
:1001C000DA40800AE5087D00FCE4FF120207E5DB67
:1001D0005440700443DB4022E5087D00FC7F01129F
:1001E00002072212009012029512029C12026F1254
:1001F00002AF1202251202791202641200261202C4
:10020000571202B70202B3AB07AF04EB14600C1431
:10021000600E2402700E8DFB8FFC228DE98FEA2286
:100220008DEB8FEC22AF885388AF758D96EF5440DD
:10023000FEEF54104E428822EB9FF5F0EA9E42F00A
:10024000E99D42F0E89C45F022900002EEF0A3EF19
:10025000F0900000EDF02253F77F75DB4275E9FF67
:1002600075EAFF22C2DE75D908759E03D2DE2275BB
:10027000E34075E10175E20222758E08758920431D
:1002800088402253984FEB4F4DF5982241000100D2
:10029000410000000075A41275D4CF2275A53075F9
:1002A000D50F22900001E0FF22900000E0FF22E441
:1002B000F5A92275A850224398102243A50F2222A7
:0102C000320B
:10080000C0E0C0F0C083C082C0D075D000C000C0BE
:1008100001C002C003C004C005C006C007E598546B
:1008200003F50CF45298900000E0602DE50C30E0E8
:1008300028900002E0FEA3E0F5828E83E599F09017
:100840000003E004F07006900002E004F090000065
:10085000E014F0E070031200D9E50C30E12D9000B7
:1008600001E06024900004E0FEA3E0F5828E83E0C6
:10087000F599900005E004F07006900004E004F0A3
:10088000900001E014F080031202BFD007D006D020
:1008900005D004D003D002D001D000D0D0D082D077
:1008A00083D0F0D0E032120022787FE4F6D8FD75D4
:1008B00081200208F0020036E493A3F8E493A340F9
:1008C00003F68001F208DFF48029E493A3F85407CB
:1008D000240CC8C333C4540F4420C8834004F456C6
:1008E000800146F6DFE4800B0102040810204080FE
:1008F00090028CE47E019360BCA3FF543F30E50975
:10090000541FFEE493A360010ECF54C025E060A8FD
:1009100040B8E493A3FAE493A3F8E493A3C8C58290
:10092000C8CAC583CAF0A3C8C582C8CAC583CADFFE
:05093000E9DEE780BED6
:00000001FF
