:020000040000FA
:100000000208A6AB07AA06EB2401FEE43A9000041E
:10001000F0A3CEF0ED14900001F08B828A83E0F51E
:1000200099222202080053F77F75DA4275FB80752A
:10003000FC80220201D7120118E4FBFD7F1012019F
:100040009A1201D2D2AF1201C0EF700F1201BAEFB3
:1000500070097E007F067D04120160E50E60E724D2
:100060009E601124F6601224FA6013240C7015E4CB
:10007000F510800D75100180087510038003751050
:1000800002850F11E4F50EF50FF51180B97597A5EE
:10009000E4F50BF50AF509F508E47FCCFEFDFCABB1
:1000A0000BAA0AA909A808C312014F501800E50BB2
:1000B0002401F50BE4350AF50AE43509F509E435C0
:1000C00008F50880D4A2AF9200C2AF7597DE75978D
:1000D000ADA20092AF22E4FFEFFD7C00C394047454
:1000E000809480502A74062FF582E43400F583E072
:1000F000F50DED600464017006740E2FF8A60D7402
:10010000062FF582E43400F583E50DF00F80C97EFB
:10011000007F067D0402000312008D1201AC120163
:10012000B31201861201C612013C12019012017B2A
:1001300012002612016E1201CE0201CAAF88538846
:10014000AF758D96EF5440FEEF54104E428822EB6F
:100150009FF5F0EA9E42F0E99D42F0E89C45F022CE
:10016000900002EEF0A3EFF0900000EDF02253F7C4
:100170007F75DB4275E9FF75EAFF22C2DE75D9089B
:10018000759E03D2DE2275E34075E10175E202221D
:10019000758E087589204388402253984FEB4F4D48
:1001A000F5982241000100410000000075A412757D
:1001B000D4CF2275A53075D50F22900001E0FF2223
:1001C000900000E0FF22E4F5A92275A85022439890
:0801D000102243A50F22223288
:10080000C0E0C0F0C083C082C0D075D000C000C0BE
:1008100001C002C003C004C005C006C007E598546B
:1008200003F50CF45298900000E0602DE50C30E0E8
:1008300028900002E0FEA3E0F5828E83E599F09017
:100840000003E004F07006900002E004F090000065
:10085000E014F0E070031200D6E50C30E12D9000BA
:1008600001E06024900004E0FEA3E0F5828E83E0C6
:10087000F599900005E004F07006900004E004F0A3
:10088000900001E014F080031201D6D007D006D00A
:1008900005D004D003D002D001D000D0D0D082D077
:1008A00083D0F0D0E032120022787FE4F6D8FD75D4
:1008B00081200208F0020036E493A3F8E493A340F9
:1008C00003F68001F208DFF48029E493A3F85407CB
:1008D000240CC8C333C4540F4420C8834004F456C6
:1008E000800146F6DFE4800B0102040810204080FE
:1008F0009001A3E47E019360BCA3FF543F30E5095F
:10090000541FFEE493A360010ECF54C025E060A8FD
:1009100040B8E493A3FAE493A3F8E493A3C8C58290
:10092000C8CAC583CAF0A3C8C582C8CAC583CADFFE
:05093000E9DEE780BED6
:00000001FF
