:020000040000FA
:1000000002080012003612011F12012612010B1203
:1000100001341201001200E61200F312012D020158
:1000200038EB9FF5F0EA9E42F0E99D42F0E89C45EE
:10003000F022220201407597A5E4F50EF50DF50CAE
:10004000F50BE47FCCFEFDFCAB0EAA0DA90CA80BB2
:10005000C3120021501800E50E2401F50EE4350D01
:10006000F50DE4350CF50CE4350BF50B80D4A2AF9F
:100070009205C2AF7597DE7597ADA20592AF228F3C
:100080000B4390A05390AFE5DA5440700543DA403B
:10009000800AE50B7D00FCE4FF1200B1E5DB544073
:1000A000700443DB4022E50B7D00FC7F011200B1B0
:1000B00022AB07AF04EB14600C14600E2402700E28
:1000C0008DFB8FFC228DE98FEA228DEB8FEC22C213
:1000D00003C2047508807509FF12000312013C7FFA
:1000E0008012007F80F953F77F75DA4275FB8075C7
:1000F000FC802253F77F75DB4275E9FF75EAFF222A
:10010000C2DE75D908759E03D2DE2275E34075E123
:100110000275E20222012100C100C101C102007585
:10012000A40275D4F02275A53075D50F2275A217DB
:1001300043F80122E4F5A92275A8402243A50F2225
:01014000328C
:10080000120032787FE4F6D8FD75813B02084A0277
:1008100000CFE493A3F8E493A34003F68001F20829
:10082000DFF48029E493A3F85407240CC8C333C42D
:10083000540F4420C8834004F456800146F6DFE498
:10084000800B0102040810204080900115E47E0115
:100850009360BCA3FF543F30E509541FFEE493A30B
:1008600060010ECF54C025E060A840B8E493A3FA1D
:10087000E493A3F8E493A3C8C582C8CAC583CAF0A9
:0F088000A3C8C582C8CAC583CADFE9DEE780BE48
:00000001FF
