:020000040000FA
:10000000020987AB07AA06EB2401FEE43A9000043C
:10001000F0A3CEF0ED14900001F08B828A83E0F51E
:10002000992222020026C0E0C0F0C083C082C0D066
:1000300075D000C000C001C002C003C004C005C02C
:1000400006C007E5985403F510F45298900000E0BC
:10005000602DE51030E028900002E0FEA3E0F5827C
:100060008E83E599F0900003E004F07006900002A2
:10007000E004F0900000E014F0E07003120115E5D8
:100080001030E12D900001E06024900004E0FEA318
:10009000E0F5828E83E0F599900005E004F07006AB
:1000A000900004E004F0900001E014F080031202DC
:1000B000FED007D006D005D004D003D002D001D0A6
:1000C00000D0D0D082D083D0F0D0E0327597A5E4B4
:1000D000F50FF50EF50DF50CE47FCCFEFDFCAB0F36
:1000E000AA0EA90DA80CC3120267501800E50F2430
:1000F00001F50FE4350EF50EE4350DF50DE4350C84
:10010000F50C80D4A2AF9200C2AF7597DE7597ADA3
:10011000A20092AF22E4FFEFFD7C00C39404748040
:100120009480502A74062FF582E43400F583E0F5BC
:1001300011ED60046401700674122FF8A6117406A4
:100140002FF582E43400F583E511F00F80C97E00BD
:100150007F067D040200038F0C4390055390F5E564
:10016000DA5440700543DA40800AE50C7D00FCE477
:10017000FF120236E5DB5440700443DB4022E50CFD
:100180007D00FC7F01120236228F0C4390065390B3
:10019000F6E5DA5440700543DA40800AE50C7D004C
:1001A000FCE4FF120236E5DB5440700443DB4022DE
:1001B000E50C7D00FC7F01120236228F0C43900972
:1001C0005390F9E5DA5440700543DA40800AE50CB3
:1001D0007D00FCE4FF120236E5DB5440700443DB93
:1001E0004022E50C7D00FC7F01120236228F0CE5D7
:1001F000DA5440700343DA40E5DB5440700343DBDC
:1002000040E50C7D00FCE4FF120236E50C7D00FCAD
:100210007F010202361200CC1202D11202D8120261
:10022000AB1202F21202541202B51202A01202869E
:100230001202930202F6AB07AF04EB14600C1460D9
:100240000E2402700E8DFB8FFC228DE98FEA228D29
:10025000EB8FEC22AF885388AF758D96EF5440FE3C
:10026000EF54104E428822EB9FF5F0EA9E42F0E9EF
:100270009D42F0E89C45F022900002EEF0A3EFF0E2
:10028000900000EDF02253F77F75DA4275FB807520
:10029000FC802253F77F75DB4275E9FF75EAFF2288
:1002A000C2DE75D908759E03D2DE2275E34075E182
:1002B0000175E20222758E08758920438840225319
:1002C000984FEB4F4DF5982241000100410000008E
:1002D0000075A41275D4CF2275A53075D5E72253C9
:1002E000DABF53DBBF22900001E0FF22900000E064
:0F02F000FF22E4F5A9224398102243A5072222FA
:10080000E4F508F509F50AF50B120215E4FBFD7F86
:10081000101202BF1202FAD2AF1202ECEF700F12E6
:1008200002E6EF70097E007F067D04120278E51271
:1008300070030208DB249E604224F6605C24FA60A8
:1008400076240C60030208D3AF131201EDE4F50A1D
:10085000F50BE4F508F5090509E50970020508E559
:1008600009B420F3E508B44EEE050BE50B70020564
:100870000AE50B6464450A70D98058AF131201571A
:10088000E4F508F5090509E50970020508E509B46C
:1008900020F3E508B44EEE803AAF131201BBE4F545
:1008A00008F5090509E50970020508E509B420F312
:1008B000E508B44EEE801CAF13120189E4F508F58B
:1008C000090509E50970020508E509B420F3E50802
:1008D000B44EEEE4F512F5130208191202DF020815
:0108E00019FE
:10098700120022787FE4F6D8FD7581200209D10292
:100997000800E493A3F8E493A34003F68001F20868
:1009A700DFF48029E493A3F85407240CC8C333C4A5
:1009B700540F4420C8834004F456800146F6DFE410
:1009C700800B01020408102040809002C8E47E01D9
:1009D7009360BCA3FF543F30E509541FFEE493A383
:1009E70060010ECF54C025E060A840B8E493A3FA95
:1009F700E493A3F8E493A3C8C582C8CAC583CAF021
:0F0A0700A3C8C582C8CAC583CADFE9DEE780BEBF
:00000001FF
