:020000040000FA
:10000000020907E5D85440FFE5F75480FE53D8BFF6
:1000100053F77F75DA0275FB8075FC80EF42D8EEEE
:1000200042F722E5D85440FFE5F75480FE53D8BF8D
:1000300053F77F75DB4275E9FF75EAFFEF42D8EEB3
:1000400042F722AB07AF04EB14600C14600E2402DD
:10005000700E8DFB8FFC228DE98FEA228DEB8FECE9
:100060002212008412008B1200921200991200A03A
:10007000120079120003020023C2DE75D908759EB2
:1000800003D2DE227597DE7597AD2275A40175D473
:10009000FF2275A53075D50F2275E34075E2022267
:0500A000E4F5A9222295
:10080000C200C2017508807509FF1200617F307E49
:1008100075EF1F70011EEF4E70F730001FE5DA54C0
:1008200040700543DA40802C1508E5087D00FCE4A3
:10083000FF120043E508701CC2008018E508F47040
:100840000753DABFD200800C0508E5087D00FCE400
:10085000FF120043300120E5DB5440700543DB40CC
:1008600080AB0509E5097D00FC7F01120043E50925
:10087000F4709AC2018096E509700753DBBFD2017C
:10088000808B1509E5097D00FC7F011200430208F9
:010890000D5A
:0F0907001200A4787FE4F6D8FD75812002080065
:00000001FF
